:1020000000800020D1350000B9350000B93500004E
:1020100000000000000000000000000000000000C0
:10202000000000000000000000000000B9350000C2
:102030000000000000000000B93500002536000057
:10204000B9350000B9350000B9350000B9350000D8
:102050007D350000B9350000B9350000BD35000000
:10206000B9350000B9350000B9350000B9350000B8
:10207000B935000049330000B9350000B93500001A
:10208000B9350000B9350000B9350000B935000098
:1020900000000000B9350000B9350000B935000076
:1020A000B9350000B9350000B9350000B935000078
:1020B0000000000010B5064C2378002B07D1054B1B
:1020C000002B02D0044800E000BF0123237010BDA4
:1020D000B00000200000000058820000044B10B542
:1020E000002B03D00349044800E000BF10BDC046E8
:1020F00000000000B4000020588200000048704733
:10210000FE7B000000487047DD7B00000048704700
:102110004B7C000000487047BC7B000000487047C3
:10212000327C000000487047117C000043680B704F
:1021300043681B0A4B7043681B0C8B7043681B0E73
:10214000CB7083680B7183681B0A4B7183681B0C0F
:102150008B71836808201B0ECB7170470A78426030
:102160004B781B021A4342608B781B041343436075
:10217000CA781206134343600A7982604B791B02C6
:102180001A4382608B791B0413438360CA79120659
:10219000134383600820704700487047F07C0000BC
:1021A00000487047CF7C0000037901200B70704716
:1021B0000B78037101207047004870471F7D0000B5
:1021C00000487047FE7C0000037901200B707047C7
:1021D0000B7803710120704700487047C17C0000F4
:1021E00000487047A07C00000122054B1A7002795C
:1021F000044B1A60044A93681B03FCD47047C04622
:102200006D0800207020004200200042030010B53D
:102210000A780C3002715B69984710BD806970477D
:1022200000487047C17C000000487047A07C000057
:10223000030010B50A780C3002715B69984710BD35
:1022400080697047004870471F7D00000048704754
:10225000FE7C0000B423DB00C05C704710B5642036
:1022600001F024FA082001F0BDFC01000C2001F06F
:102270008DFC10BD70B5094C05002378002B04D1EE
:10228000082001F041F9012323702979002900D0A9
:1022900001210C2001F07AFC70BDC0466C080020C2
:1022A000F0B5040085B00E00632905DDB4230025D8
:1022B000DB00C35CAB424DD0136828491B68611832
:1022C00010009847B123264A9B00E252254AC3B228
:1022D000A35425490212D2B262549B18B222DB43A6
:1022E0009200A354214B0522E654214B36B23612FC
:1022F000E6540023851D954206DBB1218900511863
:10230000615C01325B18F6E7DB43144A05002018D4
:1023100080180370802308359B009D420CDCC43379
:10232000E7183E00F31B9D4214DDA0683178036876
:1023300001361B689847F5E70E4B01AA019303236A
:1023400013710D4B07219360236820001B68012542
:1023500098476D42280005B0F0BDC046CB02000092
:10236000FFFEFFFFC6020000C7020000C902000016
:10237000CA020000C07A0000677C0000F8B50400C3
:10238000EFF3108572B6BFF35F8FBFF34F8FBFF3CC
:102390006F8F01F05BF9A668E7680023216920616F
:1023A000421A92197B41A260E36085F31088BFF363
:1023B0005F8FBFF34F8FBFF36F8FBFF35F8FBFF39D
:1023C0004F8FBFF36F8FA068E168F8BD0622074BFF
:1023D000FF321A60064A11005378DB09FCD1054B25
:1023E000054A1A604B78DB09FCD17047080C0040A5
:1023F000000C0040040C004005060300034A044B97
:102400001A80044A5378DB09FCD170471A45000052
:10241000020C0040000C004002221B4970B50B6802
:1024200013430B60FF21194B1960194B19680A43BC
:102430001A609A689207FCD49A685206F9D499688F
:102440000906C90FF5D1134C002225006035AA56A4
:10245000606ED2018218104812180120167830439D
:1024600010700020626E28565208C00112180B48E6
:1024700012180520147820431070094A11609A68D8
:102480001203FCD470BDC0463C20004240200042F4
:1024900000200042307D00004044004130440041B3
:1024A0007020004210B5344B344C3548E36001F0E5
:1024B000FDF8E168A06801F09DFF0023314AA350B8
:1024C0000432A3500832A3502F4AA350A5219A00EA
:1024D000C9005218A258002A45D11A004B322B4984
:1024E000FF3292006433A1504B600023A5219A0073
:1024F000C9005218A258002A39D11A004B32244977
:10250000FF3292006433A1504B600121032001F09F
:10251000F1FA01210C2001F0EDFA0121042001F073
:10252000E9FA0121052001F0E5FA0021082001F077
:10253000E1FA02221749082000F04EFF082001F0BE
:1025400051FB01000C2001F021FBFFF73FFFFFF7DB
:1025500055FFFFF761FF104800F0AEFE0121032098
:1025600001F014FB10BD0133192BAFD1BDE70133CE
:10257000192BBBD1C9E7C04690D0030068020020E8
:10258000B80B00008C0500009405000050080020E6
:10259000700800205D2200008C080020034B044AD4
:1025A000186093681B03FCD47047C046702000423B
:1025B000002000420B0A017043700B0C090E83705F
:1025C000C1707047F8B5838806000B7083880D00D2
:1025D0001B0A4B70806805F01DFA0400A81C21003E
:1025E000FFF7E8FF2200B168A81D05F03DF9F0688B
:1025F00005F010FA0700A31DE81839000A34FFF7A8
:10260000D9FF3A00F168281905F02EF9306905F074
:1026100001FAE4190700281939000434FFF7CAFF4A
:102620003A002819316905F01FF97369E4192B552F
:102630001A0A2D196A701A0C1B0EAA70EB70201D55
:10264000F8BD4368F7B50B7043680E001B0A4B706A
:10265000436804001B0C8B7043681B0ECB700B1D72
:102660000021DA1C944662688D1C5F1C981CAD002A
:102670008A420DD9E26801315519083D2A68100ACD
:102680001A705870100C120E9870DA700433E8E764
:10269000226900211A70624623691B0A3B70236974
:1026A0001B0C037023691B0E13707319DA1C9446FC
:1026B00022695F1C981C04358A420CD9A0698A00E3
:1026C00012580131100A1A705870100C120E9870BE
:1026D000DA700433EAE7E2691A70E36962461B0ABA
:1026E0003B700027E3691B0C0370E3691B0E13703A
:1026F000E369BB4215D9636ABA00985805F08AF9B4
:10270000019001997019FFF755FF636ABA0004350B
:1027100099587019019A05F0A7F8019B0137ED1837
:10272000E6E72800FEBD70B5037906000B708068EF
:102730000D0005F06FF90400681C2100FFF73AFF57
:10274000681DB168220005F08FF8601D70BD002380
:1027500010B50360CA5CDC00A24004680133224368
:102760000260042BF6D110BDF7B50C000B78050004
:102770000371013101A8FFF7EAFF221D130001993F
:10278000481D01331E1BB04203D91F785E1E3770EF
:10279000F7E7002364182371AA60FEBDF0B50C00B2
:1027A0000B7885B083804A78060012021343838039
:1027B000023101A8FFF7CBFF611D0B00019A951DA7
:1027C0000133181B854203D91F78581E0770F7E79D
:1027D0000023A218537102A8B1606119FFF7B7FF77
:1027E000029A2B1D9D181A00954204D9A05C511E17
:1027F00060540132F8E700206119013BE3184A1EDA
:102800001070F36003A8FFF7A2FF039B0435E818DC
:102810002B00984204D9E15C5A1EA1540133F8E719
:1028200000212218013D531E651919703561537836
:1028300091781B020904D2780B43215C12060B43EA
:1028400013430430736105B0F0BDF0B54B780D78DB
:102850001B022B438D7887B02D042B43CD780400C9
:102860002D061D4343680E00AB4204D2A900C06888
:1028700005F0B4F8E06000236560371D0193BA7875
:102880007B7812041B0213433A781343FA78043717
:10289000120613430293019B019A981C8300039331
:1028A0001D00636893420DD928002100029B08385F
:1028B000A360E36804221818083104F0D5FF019BD7
:1028C0000133DBE72369029A934204D29100A069A5
:1028D00005F084F8A061029B2361039BF718002395
:1028E0000193BA787B7812041B0213433A780435BB
:1028F0001343FA780437120613430293019A2369AB
:1029000093420CD92100029B90006361A3690422C9
:102910001818143104F0A8FF019B0133E0E7E369C4
:10292000029A934204D29100606A05F057F86062FF
:102930000027029BE361E369BB421FD9711905A817
:10294000FFF705FF059A2B1D9D181A00954204D923
:10295000B05C511E70540132F8E700217219013A3F
:1029600011702100013BF3182362636AB800181844
:102970000422203104F078FF0137DCE7280007B09B
:10298000F0BD00001FB50C4B04000193002302931F
:102990000393036801AA1B680A219847216A626AA7
:1029A000B5232000DB00E31819605A600830FFF7F8
:1029B000E5FC206261621FBD087B00000022F0B5CB
:1029C000802705002B4B89B0029302AB9A802A4BDB
:1029D0000792049305930693284BBF00C4186433F1
:1029E000C6182368002B17D09A68586802A98A80F5
:1029F0001A68036804929B68984723680590586892
:102A00000368DB68984721682B68069007971B6866
:102A100002AA0969280098470434B442E1D180260B
:102A2000174BB600EB1801932068002818D04368B4
:102A300002AA93808368049303689B689847059073
:102A400020680368DB6898472B68069020681F6839
:102A5000036807965B68984702AA01002800B847F8
:102A6000019B0434A342DFD1B4230122DB00EA54EA
:102A700009B0F0BDF07A00009F7C0000C4040000A3
:102A80008C050000F0B5A1B0040000F0D9FDB6231C
:102A9000DB00E3586E4A0190C31A934203D9B42372
:102AA0000022DB00E2546B4BE2580093002A07D06F
:102AB000694B019AE358934202D20023009AA35033
:102AC0002500C0352B68002B1FD1A06803685B6907
:102AD0009847002822DAB4230025DB00E35CAB42F0
:102AE00010D05E4E019BA259981A04F035FE0022C8
:102AF0005B4B03F0FDF8A84204D02000FFF742FF33
:102B0000019BA351280021B0F0BD00F099FD019B6D
:102B1000C01A2B689842D8D9022596E0514A0099EC
:102B2000A358C318A3506558072D0ED1043AA358D3
:102B3000591CE318C433A1501870083AA358013B3C
:102B4000A350002BBCD10823B8E7002D13D1FF28D8
:102B500006D10123009AA350019B3F4A1433AEE7EC
:102B600000F06EFD019BC01A3F4B9842A8D9B423D8
:102B7000DB00E554D0E7012D0FD1FE2801D102235F
:102B80009CE70023009AA350B423DB00E35C002BF6
:102B900096D12000FFF7F6FE92E7022D0AD1B2236C
:102BA0000021DB00E0500833E1500323009963501B
:102BB000A05085E7032D07D1B223DB00E2580002C5
:102BC0001018E050042379E7042D0BD1274A134055
:102BD00003D5274A013B13430133FF2B00D06CE799
:102BE000FA3B6BE7052D03D1224BE0500623DDE7CE
:102BF000062D0BD11F4B0002E2581018E05007239E
:102C0000009AA350B223DB00E3589AE7082D00D0C6
:102C100056E7002200996250144A134003D5144A23
:102C2000013B13430133FF2B00D049E7114BE3581D
:102C3000002B21D12000FFF7A5FE2000FFF7BEFEEC
:102C4000B6230125019ADB00E2506D425AE7C046E7
:102C5000F82A00008C050000B4050000A40500005F
:102C600000408F409C05000088130000FF0000809A
:102C700000FFFFFF940500000A2B00D0DAE1DF4BD4
:102C800000251D9323000833180011931E951F95EE
:102C9000FFF774FB226A636A801A994102900391DC
:102CA00021001DA8C431FFF759FA1E9BD44A069390
:102CB00006980023290003F02FF80F00FA210600E0
:102CC00089001F9802F074FE17951690169A179BAC
:102CD000B6185F41206A616A039B029ADB075208BB
:102CE0001A43039B04925B080593049A059BB61A4A
:102CF0009F4132003B00A262E362230006960797E1
:102D000088331A780E900F91AA4200D155E1B5236D
:102D1000DB00E3181A685B68801A994103F026F813
:102D20000022B84B03F054FB226C636C06000F00CA
:102D3000266567651292139303F054FFA26BE36B51
:102D400003F02AF802000B000A900B91A263E363E0
:102D5000A26EE36E30000C920D93226F636F390008
:102D60001492159303F03EFF226E636E1890199132
:102D700003F012F80C9A0D9B1A91089010913000F4
:102D8000390003F02FFFA26DE36D03F005F8089AF8
:102D900002900391109B3000390003F023FF0200E2
:102DA0000B000298039902F0F7FF230090331A6892
:102DB0005B6802F0F1FF0B000200A265E365089A70
:102DC000109B1B9102900991226663660C980D99E5
:102DD000189A199B02F0E0FF02000B00A266E3665E
:102DE000230098331A685B680C900D91149815991C
:102DF00002F0D2FF02000B0014901591069807997B
:102E000022676367226B636B801A994102F0AEFF01
:102E100006000F000E980F9902F0A8FF02000B00A9
:102E20003000390004F050F90022764B03F0D0FA5C
:102E30000A9A0B9B04F048F906000F000022A664D2
:102E4000E764002302F054FFA84200D1ADE0002265
:102E50006D4B30003900012502F036FF002800D10B
:102E6000051CEDB2002D00D18DE02300A0331A68BF
:102E70005B680298099902F08FFF02000B000020A6
:102E8000624903F0A5FA0690079102000B00029830
:102E9000099903F0A7FE02000B000E900F910C9809
:102EA0000D99A267E367069A079B03F09BFE230038
:102EB000069007910A000100803319605A600E9A4B
:102EC0000F9B3000390003F08DFE02000B001890BC
:102ED00019910A980B9902F05FFF069A079BA0636D
:102EE000E1633000390003F07DFE060002000B00B4
:102EF0000F001298139902F04FFF2300B0332064A3
:102F000061641899199A9E60DF6019605A600E9A80
:102F10000F9B00203D4904F0D7F8069A079B1B9DA4
:102F20000A900B912E0080252D06AC46664402982F
:102F3000310003F057FE0C9A0D9B02F02DFF069A0C
:102F4000079B1A9DA066E1662E0080252D06AC46E3
:102F500066440898310003F045FE149A159B02F070
:102F60001BFF0A9A0B9B206761670298099903F07F
:102F700039FE0A9A0B9BA065E1650898109903F049
:102F800031FE2066616600F05BFBB623DB00E0509B
:102F90001198FFF7F3F9B523DB00E31818605960C7
:102FA00023000122A8331A708AE50022184B300052
:102FB0003900012502F09CFE50E7069807990E9D06
:102FC0000F9E401BB14120636163124812490122E8
:102FD000A063E163114812492064616411481249F9
:102FE000A065E1650020002120666166A066E166BB
:102FF0000E480F49206761671A70C4E7087B00001C
:1030000040420F0080842E410000E03F0000F03F6E
:103010000000E0BF333333333333E33F61325530A5
:103020002AA933BFF168E388B5F8E43E1656E79E57
:10303000AF03D23C062B0AD121000E4BC431E0185D
:10304000FFF703FCB7230122DB00E25438E50B2B2A
:1030500003D1B4230022DB00F7E7E6339B001859C5
:10306000002800D12CE521000368C4311B68984773
:1030700026E5C046BC05000070B51A48FFF702FD02
:10308000194B1C78002C27D1082000F069FC08207F
:1030900000F08CFC122000F0C1FC144A144D13689F
:1030A00099004851632B18DC013313600021114C47
:1030B00020688B00EB580131C0186429F9D102F067
:1030C00001FDFA280BDC20600520012100F05EFDE7
:1030D0002068C0B2FFF762FA70BD1460E6E7FF2314
:1030E0002360F1E7680200206D080020CC0000207A
:1030F000D0000020600200203E4B3F4A30B51A60ED
:103100003E4A19009A603E4A8831DA6000220A700D
:10311000190089310A7019008A310A701900394C76
:10312000394D90310C604D601900384C384D983154
:103130000C604D601900374C374DA0310C604D606C
:103140001900A8310A70B421C9005A5433483449CF
:10315000585010001C315A5008315A5031495118FA
:10316000591804320860642AF8D100221000A52101
:10317000C9005118591804320860642AF7D1002296
:103180008020140080001100C431591801320C70E5
:103190008242F8D1002180240A00A400B1208000DE
:1031A0000818181801310270A142F7D1B821C900DE
:1031B0005A5008315A501C491C485A501C495A5000
:1031C000C0331A601B491C4B19601C491A74D96022
:1031D0001B4998605961012199611A4B1A481A7468
:1031E0001A4A18605A611A481A4AD86099619A6056
:1031F00030BDC04668020020507B00009C0B0020C0
:1032000090D00300F168E388B5F8E43EBBBDD7D9A0
:10321000DF7C0B3E7B14AE47E17A743FD87A000026
:10322000BC050000C4040000CC0500008C7B00003D
:10323000D4050000647B000050080020207B0000C3
:10324000E9210000700800207C7B0000752200004E
:10325000387B0000A27B0000037D002B04D1437566
:10326000837583610133037570477FB5C36802AD11
:1032700004000E0002916A608B4203D1028AAB887F
:103280009A4218D02000062229000C3004F0ECFAF3
:10329000206800F026FE6B79227AE179009320689D
:1032A000002300F0B1FE20682979320000F0EAFD29
:1032B000206800F00CFE7FBD70B518260400FFF7F3
:1032C000CBFF3300082120790D4D4343EB185956AD
:1032D00000F0A0FC33000821A0794343EB185956B5
:1032E00000F098FC082160794643AD19695600F05A
:1032F00091FC044B200006CBFFF7B7FF70BDC04622
:10330000307D0000A80800200A4B0B4A0B491A60C8
:1033100000225A711A710A4B19600A49DA609980C1
:103320001B215A741A741A75DA71033299711A7260
:103330007047C046A808002000093D00F40A00209C
:103340008C0800201A1D000010B5024802F001FA96
:1033500010BDC046B008002013B51249124800F055
:1033600007FD1249124800F003FD1249124800F00F
:10337000FFFC1249124800F0FBFC124C12492000DD
:1033800000F0F6FC1149124800F0F2FC0023019312
:103390000133009321221F3321000E4802F06EF901
:1033A00013BDC04600080042EC0A0020000C004299
:1033B000F00A002000100042F40A0020001400422D
:1033C000F80A0020FC0A002000180042001C0042FD
:1033D000000B0020B0080020F7B501921822162437
:1033E00042433F4B07009B181C570091631C6ED053
:1033F000102C6CD03B4B3C4E1D68002D27D1290072
:1034000044223A4804F039FA29004422384804F0AA
:1034100034FA1022374B38491D60CA67C021C120D9
:10342000364B49005A5080001958FF35A9431950AE
:103430001A60334B334A5A80022332781343337075
:103440007378DB09012BFBD00122264B1A60012582
:10345000A540736900212B437361380000F0DAFB4B
:10346000009B002B31D00027224B20499C461B6833
:10347000BA00BB421DD16046013303608D501C4B26
:1034800000999950072C19DD0123083CA40007215D
:10349000A140154A9B009B189A698A439A61019A38
:1034A000042A12D81000996902F078FA0B12141647
:1034B00018008858A842E1D00137D9E7A4000023BA
:1034C000E5E70522A2400A439A61ADB2F560F7BD77
:1034D0000422F7E70322F5E70222F3E70122F1E7EE
:1034E000307D00008C0B002000180040480B0020AD
:1034F000040B0020900B002004E100E000E100E05C
:10350000000C00400540000018234343164870B5E6
:10351000C0181623C3565A1C0FD0102B0DD00120F3
:103520009840124B82B29A605A69114D82435A6197
:10353000002229680F4C914200D170BD93001E59A2
:10354000864205D10C480139914203D82960F4E73D
:103550000132F0E7E61876680132E650C618766860
:103560001E500433F0E7C046307D000000180040D4
:10357000900B0020480B0020040B0020F8B500241D
:10358000094B1B68A34200D8F8BD084E084FA500A0
:103590003369EA591A4204D0064BEB589847EB5965
:1035A00033610134ECE7C046900B00200018004066
:1035B000480B0020040B0020FEE70000034B10B571
:1035C0001B68002B00D0984710BDC046940B00200C
:1035D00070B50F490F4CA14204D100F08FF802F0F2
:1035E000A1F9FEE70C4D00238D42F6D0CA18E81869
:1035F000A24205D3094B8242EFD00949002204E0E0
:10360000006804331060F1E704C38B42FCD3E4E7A5
:1036100000000020B00000205C820000B00000200C
:10362000D011002010B500F066F8002801D100F09C
:1036300057F810BD014B18607047C046940B00202E
:10364000014B18687047C046980B0020F7B5134827
:10365000012284461249134C8E68636805689B0EEC
:103660001340019288686268019F920E3A40674653
:103670003F6893420ED1BD420CD186420AD35B19FA
:10368000FA254868AD00861B07486B437043000D60
:10369000C018FEBD3D0013000600E3E7980B0020B4
:1036A00010E000E000ED00E05555000070B5041E8C
:1036B00010D0FFF7CBFF050000F01CF8FFF7C6FFA6
:1036C000054B401B9842F7D9FA23013C9B00ED18AB
:1036D000002CF3D170BDC046E70300007047000026
:1036E00010B5034A13680133136000F005FB10BDE9
:1036F000980B002070470020704700001E2270B514
:1037000046484749436893431C3A134343600823A0
:103710008C6923438B61434C434B9C829C8A1443AA
:103720009C82DC681442FCD00124404A1470157855
:10373000254203D055786DB2002DF8DB012494604A
:10374000547864B2002CFBDB394C5460547864B27A
:10375000002CFBDB8224E4015480547864B2002CFA
:10376000FBDB02249C840E34DD682542FCD0314C06
:10377000DC621024DD682542FCD09D8C2E4C2C434D
:103780009C841024DD682542FCD002249D8C802678
:103790002C439C844024DD683542FCD0DD68254202
:1037A000F9D01024DD682542FCD0002494605478C0
:1037B00064B2002CFBDB214C5460547864B2002CC2
:1037C000FBDB1C6A1E4D2C4080251C621C6AAC432E
:1037D0001C62032393601B4B536053785BB2002B36
:1037E000FBDB0023FF240B72174A4B728B72CB72E8
:1037F000164B1A60164B174A1B6811689A065B0134
:10380000C90E2340520F12020B431343124A138571
:10381000802342681343436070BDC04600400041AE
:10382000000400400C06000000080040000C0040AE
:1038300001050100B905FF7D040A0000000703002F
:10384000FFFCFFFF03060100006CDC02000000200B
:10385000246080002060800000400042FA21314B4B
:1038600010B51868890002F0A3F82F4B0138984270
:1038700056D82E492E4A4860C020136A00061B0203
:103880001B0A03431362002407238C600B60802112
:10389000136A09061B021B0A0B431362FC22254B09
:1038A000196A0A431A62FC22196A92010A431A62CF
:1038B000A022196AD2020A431A62200000210134B0
:1038C00000F018F90F2CF8D11B4B1C005A7852B29B
:1038D000002AFBDB194A5A80194B1A00597EC90984
:1038E0000129FBD0E421C90099803F21D970537E82
:1038F000DB09012BFBD0C02300205B01136190701A
:1039000000F05AF863785BB2002BFBDB0D4B0E4ADC
:103910006380D379DB09012BFBD04123537010BDA9
:10392000FEE7C04600000020FFFFFF0010E000E0BF
:1039300000ED00E000040040000C00401E400000CC
:10394000004000422140000000480042914202D065
:1039500002D98A1AD0407047521A9040FBE7000003
:103960000F4B302218600F490F4B0A2809DD988849
:1039700090439880243A0A605A7ED209012AFBD0EB
:103980007047082806DD98889043202202439A80D9
:103990000A22F0E7988802439A800822EBE7C046A3
:1039A000080000200400002000400042014B186085
:1039B0007047C0460C000020164A00B51300517E27
:1039C000C9090129FBD00138042816D81969124AFF
:1039D0000A400F211A615A788A4301F0DFFF030879
:1039E000060B0300110001220A435A7000BD1100AA
:1039F0000322F9E711000222F6E7F02311691B0503
:103A00000B430F21136153788B43190002230B439F
:103A10005370EBE700400042FFFFFFF010B50400D9
:103A20000E2800D80F340121200000F0F3F81823ED
:103A3000102163432A4CE4186156002901D014294F
:103A40000DD1284B1800DA79D209012AFBD00224C3
:103A50001A78A2431A70C379DB09012BFBD02248E4
:103A60000300427ED209012AFBD01F2402692140B3
:103A7000A2430A4302615A7ED209012AFBD00222E4
:103A800019780A431A705A7ED209012AFBD0022201
:103A9000197B0A431A731A7ED207FCD501221A76C3
:103AA0005A7ED209012AFBD00222197B0A431A73DB
:103AB0001A7ED207FCD5588B80B25A7ED209012AD1
:103AC000FBD002211A788A431A705A7ED209012A41
:103AD000FBD0064B1A68064B1968FFF737FF10BD7D
:103AE000307D0000004800420040004208000020F5
:103AF00004000020182330B51D00040045430820B1
:103B0000204A55192856013014D0032912D808002C
:103B10006343D156D31801F041FF02280E1B5868A9
:103B2000CB010221184A9B181A1840321170012249
:103B300082405A6030BD5868CB010621124A9B185A
:103B40001A1840321170012282405A609A61F1E7DE
:103B50005868CB0106210C4A9B181A184032117084
:103B6000012282405A605A61E4E75868CB01022181
:103B7000054A9B181A1840321170012282409A603F
:103B8000D8E7C046307D0000004400411823F0B55E
:103B900008245843114A13181C5701341BD001261E
:103BA00035005F688356BD400D4ADB019A18906866
:103BB00005420BD10C00601E8441D21940321078AE
:103BC00034400336A400B04320431070044A9B18CD
:103BD000002901D15D61F0BD9D61FCE7307D0000F1
:103BE00000440041182310B508244343074900202E
:103BF000CA181457013408D05B560549DB015B181D
:103C0000186A5368D8400123184010BD307D000069
:103C10000044004118224243F8B52C4E0300B2186C
:103C2000127A52B2140001320ED0481C00240C2823
:103C30000AD801F0B3FE071F1F1F1F1F1F1F1F0BF6
:103C40000B0B0B00012464422000F8BD092905D1AB
:103C500000211800FFF74EFF0024F5E70A2901D1E3
:103C60000839F6E700240B29EED10A391800FFF7CE
:103C700041FFE9E718225343F218556801202C0050
:103C8000F356134ADB016E089B18C9B204409E1913
:103C9000002C0DD00F243036327809012240114318
:103CA000C9B25B19317040331A7810431870D3E7EA
:103CB00032000F27303216785B19BE433143117042
:103CC00040331A7810431870BEE7C046307D0000BC
:103CD0000044004110B50400FFF700FD014B1C60DB
:103CE00010BDC046100000200122024B52421A6053
:103CF0007047C04610000020164A10B51368591CC2
:103D000026D0013B1360002B22D172B6124B134A0E
:103D10000433934213D9124A01211000147D0C423E
:103D2000FCD02021148BFF319B085B0021431183C1
:103D3000D3610C4B13800123027D1A42FCD0BFF3E8
:103D40004F8F094B094ADA60BFF34F8FC046FDE73A
:103D500010BDC0461000002000200000030200003B
:103D60000040004102A5FFFF00ED00E00400FA055D
:103D7000016070479446F0B59E1E721E96416246E1
:103D8000056892072F6836063A4332432A600725B2
:103D900005AC24780068A40129402143426800242E
:103DA000022B00D05C03114321434160F0BD30B5CC
:103DB000C0250368AD031C6812052A402243C024B5
:103DC0000904A40221401143196003685A6814438E
:103DD0005C6030BD0123026811680B431360036807
:103DE0001A68D207FCD4DA69D207F9D470470223E3
:103DF000026811680B4313600268D3699B07FCD407
:103E0000704703681A7ED20702D41A7E9207FCD547
:103E10007047002203685A8370470368187E400782
:103E2000C00F70470368187EC0097047802302687E
:103E30005B42117E0B43137670470368588B8007F3
:103E4000C00F704702230268518B0B4353837047A6
:103E50000368187EC007C00F70470368188DC0B292
:103E6000704703681A7ED207FCD589B201201985F4
:103E70007047012203689A757047012203681A751A
:103E80007047000070B5012604684B08334031408C
:103E9000256809075B070B432B4323600468510027
:103EA000034801F085FD0138C0B2207370BDC046E3
:103EB000006CDC020123026811680B431360036885
:103EC0001A68D207FCD4DA69D207F9D47047022302
:103ED000026811680B4313600268D3699B07FCD426
:103EE00070470368DA699207FCD402211A688A4392
:103EF0001A6070470368214A30B593422FD0204A98
:103F000093422FD01F4A93422FD01F4A93422FD063
:103F10001E4A93422FD01E4A93421FD10E231922CC
:103F20000121032599401B48C024016099082B40BA
:103F3000AB40FC359D4089000918A4000859A843EE
:103F4000C0259D402B0003430B518023DB011A4306
:103F5000114B5A805A7852B2002AFBDB30BD09233C
:103F60001422DDE70A231522DAE70B231622D7E70E
:103F70000C231722D4E70D231822D1E700080042B2
:103F8000000C0042001000420014004200180042E1
:103F9000001C004200E100E0000C0040F8B5040005
:103FA0000F0016001D00FFF7A5FF2000FFF712FF0E
:103FB0001C21BB000B4071072268090C0B431360E6
:103FC000842322689375012F1AD11021012E00D06D
:103FD00008390C4B69431868C00001F0E9FC07225E
:103FE000216802408B895203DB04DB0C13438B8175
:103FF000226803049089DB0C400B40031843908136
:10400000F8BDC04600000020F7B50600019308ABDC
:104010001F780D001400FFF74DFF3000FFF76AFF17
:10402000C022240592031440BA070C2717433C43CF
:10403000C0270722BF022D0433683D4025431D6081
:10404000019B316813401A0080239B0213434B608D
:10405000F7BD0020704770B50F26CB1D0139020057
:104060003240D5B22C0000093034092A00DD073473
:104070001C70013B8B42F2D170BD000010B50C00EA
:104080000B4B1868FFF7E7FF21000A4B083118684F
:10409000FFF7E1FF2100084B10311868FFF7DBFF45
:1040A0002100064B18311868FFF7D5FF202010BDFE
:1040B0000CA0800040A0800044A0800048A08000A8
:1040C00008B4024B9C46103808BC60477D40000095
:1040D00070473F20704713B56B460268D9710733AC
:1040E000546819000122A04716BD000070B50A26C9
:1040F0000B7892B06E44023305000B703C22002115
:10410000300003F0BAFB394801AC0690384824214E
:104110000790062020776846364AA1742281364AE5
:10412000364BA281FD3AFF3A8018C17768462339A1
:104130000630C17768460730C17702A8C1770720EB
:10414000F277032608316944C87703A9CE77102196
:104150002B366E443170092621851F3169440E705B
:104160000CA9053E0E7033212380022369440B7095
:1041700006360DA90E7022493536A1863B216E44C4
:10418000307010A86274E27702703D3269446A446C
:104190000B70137040210022E37023716371A373CD
:1041A00041336B44218719705A702B7DC039A3703D
:1041B000A37263770133DBB2A3776A7D0B200D0016
:1041C00068441543C5773120684403703A23501C76
:1041D0006B441870412302320A436B441A70210069
:1041E0004222084800F050FF12B070BD10010424B4
:1041F000020605240904000001020000080B00006B
:1042000007050000040C002008B4024B9C4610383F
:1042100008BC6047ED40000070B5027D0B790C00D2
:1042200000259A420BD10B784E78A12B09D1212E73
:1042300005D107221F49204800F026FF013528003C
:1042400070BD212BFBD1202E2BD1072219491A48F2
:1042500000F05CFE174B1A785978090211439A78DE
:1042600012041143DA7812060A439621C9008A42E1
:104270001DD1DB79DB071AD4FA20FFF72BFD0021D3
:104280000D4801F00DF80125232ED8D1E378A2784E
:104290001B021343094A00210748136001F000F88C
:1042A000CDE7222EEFD18A78024BDA71D2E7FFF701
:1042B0001BFDE4E718000020040C0020140000207F
:1042C00008B4024B9C46103808BC604719420000F5
:1042D00010B5417D006A013100F050FD034B1B68B1
:1042E00001335A1E9341181810BDC046200000200B
:1042F00010B5417D006A023100F056FD10BD10B5C9
:10430000417D006A023100F01DFD10BD70B50D0049
:10431000417D0400130002312A00006A00F00AFE09
:10432000002801D10123636070BD000010B5054C69
:1043300023685A1C04D103685B6998470300206016
:10434000180010BD20000020074A0300106810B5B7
:10435000411C03D001235B42136010BD597D186AD4
:10436000013100F097FDF8E72000002070470020A1
:1043700070470000FA239B0010B583600F4B0022AA
:10438000C3820300283383610D4B04004260C26185
:104390001800443323610830631D21622060DA77FE
:1043A0008323A362813BE3628033236300F0AEF892
:1043B0002100103100F07EF8200010BD0302000043
:1043C00090800000022110B5094B1A68437D5B0103
:1043D000D318FF339C7A21439972437D0133DBB2BA
:1043E0005B01D3180122FF33997A0A439A7210BDF8
:1043F000BC1000207047000010B502490248FFF7CA
:10440000B9FF10BD040C00209C0B002070B50E00FD
:1044100000254468002C0BD0236831005B68200025
:104420009847002802DB2D18E468F3E701256D4268
:10443000280070BD70B50D004468002C08D02368BA
:1044400029009B6820009847002802D1E468F4E71F
:10445000200070BD70B50D0000264468002C09D006
:104460002368290020001B69984736182D18F6B2DA
:10447000E468F3E730002C7070BD70B50D0044683F
:10448000002C08D0236829001B68200098470028CA
:1044900002D1E468F4E7200070BD70B50D004468F7
:1044A000002C06D023682000DB6829009847E468C8
:1044B000F6E770BDF0B58C79457803002A19002025
:1044C000072A1FDC5A68824216D159601A78C879C7
:1044D0000A7112184D711A7000220B4DD0B284422D
:1044E0000FD98F6858789600F759860001307751B8
:1044F00001325870F2E70200D0680028FBD1D16089
:10450000E4E70120F0BDC046DC0B00200121064A93
:1045100010B5136805480B4004D180246400048062
:104520004360116010BDC046D00B0020D40B0020AA
:10453000704710B5040001F019FA200010BD00000A
:10454000F0B5822919D1C3B2294D5A01AA1891692F
:10455000284C80010C40C0218905214391612649E6
:10456000083340187021506128685B011A5C8A4347
:10457000110030220A431A54F0BD0029FCD1C02694
:10458000C1B21B4C4B01E3189A681A4DB6052A407C
:1045900032439A60194A800182185A600A0007273C
:1045A000246808325201115DB9430F0001213943DB
:1045B00011559F6910493D4040182E439E61586136
:1045C0007020115D81430800102101431155996845
:1045D0000B48A2180840802149030143996099685B
:1045E000890B89039960402311790B431371C3E749
:1045F000BC100020FFFFFF8F300C0020F00D0020CA
:10460000FF3F00F0EFF3108303600123436072B6B5
:1046100070470368002B02D162B6BFF36F8F7047FB
:10462000F7B50600FC36B3690400002B18D1B22799
:104630007F00C55D6846FFF7E5FF019BEDB2013BDA
:1046400002D3E55DEDB2FAE768460193FFF7E1FFBB
:10465000002D01D10020FEBD706E336EC01AFAE746
:104660006846FFF7CFFFD8220025019B5200013B8F
:1046700002D3A55CEDB2FAE768460193FFF7C9FFE4
:10468000002DE7D0D6235B00E058043BE358E5E774
:1046900010B54468FC3043690B48DBB25A01A218DC
:1046A0009168083308408021490301439160916873
:1046B0005B01890B890391602268D3184022197924
:1046C0000A431A7110BDC046FF3F00F0F7B5050060
:1046D000FC356B694268DBB21900040008311068D0
:1046E00049014118C979C90711D55B01D2189368EE
:1046F0009B049B0C0CD12000FFF7CAFF63681A686B
:104700006B69DBB208335B01D3187F22DA71F7BD26
:10471000E969002923D16B66230001266933FF3341
:10472000EE6168465360B227FFF76CFF7F00B2214D
:10473000019BFF31013B5A1C38D0D822E65552006C
:10474000A25C581ED2B26254625C8446002A04D134
:1047500020000193FFF79CFFE9E76346EBE7D621D2
:10476000490063500023EB6123001D33FF33536086
:104770006846D826FFF746FF01277600B221019B45
:10478000FF31013B5A1C11D0B222A7555200A25C46
:10479000581ED2B26254625C8446002A04D12000C2
:1047A0000193FFF775FFE9E76346EBE7684601937E
:1047B000FFF72FFFA2E7F7B5060068463400FFF7C2
:1047C00021FF0027FF22019BFC34013B0DD3E06851
:1047D0002169884204DBE7682069D71B3F18F4E7AA
:1047E0002769E1687F1A013FEFE768460193FFF709
:1047F00010FFA3696846002B52D1FFF703FFB221D7
:10480000019B4900013B5A1C0CD0755C5A1EEDB24D
:10481000002D05D168460193FFF7FBFE2800FEBD81
:104820001300F0E7684601930025FFF7F2FEFF2230
:10483000236EBD4214D0616E994211D9591CF318F0
:104840002166FF33587FE36821690133C0B213400A
:104850008B4203D0E16871180872E3600135E7E725
:10486000626E9A42DAD1002323660133A36168465F
:10487000B224FFF7C7FE6400B2220021019BFF3281
:10488000013B581CC6D03155B05C5F1E002805D0D6
:10489000B15430000193FFF7FBFEEDE73B00F0E77A
:1048A000FFF7B0FED821019B4900013B5A1C06D0FE
:1048B000755C5A1EEDB2002DACD01300F6E76846C9
:1048C0000193FFF7A6FED623D4225B0000259C4669
:1048D0005200B358BD4203D061467158994220D866
:1048E0006246B2589A4299D1D42200235200B35062
:1048F0006846A361D824FFF785FE6400B222002138
:10490000019BFF32013B581C00D183E73155B05C5D
:104910005F1E002819D0B15430000193FFF7B8FE94
:10492000ECE7591CB150FF21F3186933FF331878B5
:10493000E368C0B201330B4021698B4203D0E168C8
:1049400071180872E3600135C3E73B00DBE710B57F
:104950000400FFF730FF2300FC331969DA68914245
:1049600003D01B69E418207A10BD01204042FBE708
:1049700010B50400FC34FFF71EFFE0682369C01A7D
:1049800001D50130FF3010BDF0B585B00192009126
:104990000500FFF710FF02A8FFF734FE01200024F6
:1049A000FF26039B40425A1E531C1FD02B00FC3392
:1049B00001998C4218D2D9681F69C91B01D50131F0
:1049C000FF31002910D01969DF688C460100BC4511
:1049D00006D019691F69691801373740097A1F61C4
:1049E000009F39550134E3E7013ADDE702A803925D
:1049F000FFF70FFE200005B0F0BD37B56B46DC1D9C
:104A000000230D002370FFF781FD2100FFF7FEFC5E
:104A10002B681818286020783EBD00002023F7B5C9
:104A2000414A0500D1690F200B43D36101223F4960
:104A30000B7813430B703E4B197881431970062194
:104A40001C78214319703B490C7822430A701A786C
:104A500002401A70602219780A431A70364B374A9E
:104A60005A805F78FF09FCD13548FEF7E3FD01234A
:104A7000344C354E2268300011780B43137080227D
:104A80003900520002F0F9FE22689378DB07FCD46B
:104A900056621F262D4B1B68590B980C9B01314009
:104AA00030405B0FB14200D105211F2800D10238F0
:104AB000072B00D1043B31408901178D0191244916
:104AC00030400F40019939431185118D0700B143E2
:104AD000080038431085118D18031E4B0B407F21B1
:104AE000034313851378C1200B40137004232268FD
:104AF000800011780B430C211370226813898B43BB
:104B0000154913810B581B021B0A0B5080230B60A5
:104B100011787E3B0B431370012300212B700F484B
:104B2000FFF768FCF7BDC046000400405844004150
:104B30003C44004159440041000C00400640000044
:104B4000B1540000BC100020C01000202460800080
:104B50003FF8FFFFFF8FFFFF00E100E09C0B00200C
:104B60000078002810D00121084B1B681A898A435D
:104B70001A810822198B0A431A830422198B0A43CB
:104B80001A830022024B1A607047C046BC100020F6
:104B9000B410002010B50F4A93699B0B9B039361DF
:104BA00013680222FF331A729879823A02439A718B
:104BB0001A7A9207FCD57F24074A2140937A08008D
:104BC000A3431900802301439172917A5B420B4306
:104BD000937210BDBC1000200050004110B50C00B5
:104BE000FFF794FC2100FFF748FC002804D1034A9A
:104BF00093699B0B9B03936110BDC046BC100020C2
:104C0000F7B50D00832A19D1CBB2404C5A01A21836
:104C100091693F48AD010840C02189050143916178
:104C20003C4920686D187021083355615B011A5C9E
:104C30008A43110040220A431A54F7BD022A5FD169
:104C4000354B8A00D058002802D003685B6998472A
:104C5000DA20400000F086FE802204002B4E2F4B0D
:104C60004660036052000021083002F006FE220078
:104C7000B2210023FC324900D360556113611366F1
:104C80009361D3615366635444316350043163507C
:104C900004316354B221FF316354FF202B000340E1
:104CA0005901019371188F68194BAD003B40C02723
:104CB000BF051F438F600727019B366808335B01E0
:104CC000995DB9430F000321394399552300516978
:104CD000666801401D334901FF3371184B606368FA
:104CE00052691B68024052019B1801221B18997AD5
:104CF00020000A439A72FFF7CBFC074BEC509CE76D
:104D000011002800FFF71CFC97E7C046BC100020EC
:104D1000FFFFFF8F300C0020080C0020F080000007
:104D200070B505000124064BA200D258002A06D017
:104D3000210028000134FFF763FF0A2CF3D170BD76
:104D4000DC0B00200B4BCAB20B488901C918530178
:104D5000C318596199690832890B890399610368FD
:104D600052019A180223D3715179823B0B4353713C
:104D70007047C046300C0020BC100020084B8A0051
:104D8000D05810B5002803D003689B68984710BD21
:104D9000C9B2044B4901591888688004800CF6E7B1
:104DA000080C0020BC10002010B50C00FFF7E6FF37
:104DB00000280CD0064BE4B21B68083464011C19AF
:104DC000802362795B42134363710223E37110BD58
:104DD000BC100020F0B51C002A4B85B01B680700F2
:104DE0000D000292002B4AD0274B8A00D058002891
:104DF00008D0036822005B680299984704002000ED
:104E000005B0F0BD3800FFF7B9FF844204D929008E
:104E10003800FFF7B3FF04000121EBB21B4E0393F0
:104E20005B010193F21893689B0B9B039360019ABB
:104E3000336802989B18FF335A7A0A435A72144B0C
:104E4000A901C918220002F00FFD002CD7D02900BB
:104E50003800FFF793FF0028D1D14021039B32682F
:104E600008335B01D3181879014319710121D971F5
:104E7000019BD318FF339A7A0A439A72BFE7012441
:104E80006442BCE7B4100020080C0020BC100020D5
:104E9000F00D002013B56B46DC1D22000123FFF747
:104EA00099FF012801D1207816BD01204042FBE77F
:104EB00070B5CBB2124A13485C01890189180219F6
:104EC00051609168104D08330D40802149032943FA
:104ED000402591609168890B8903916001685A01AE
:104EE0008A1816793543157195796D06FCD55B01E5
:104EF000C918CB79DB07FCD500198068C0B270BD3A
:104F0000F00D0020BC100020FF3F00F070B50D0038
:104F100000211400FFF7CCFFA04200D9200000239D
:104F20000349A34203D0CA5CEA540133F9E770BDD8
:104F3000F00D0020F0B51E003A4B85B01B680F0045
:104F40000192002B35D08023DB019E4231D8002511
:104F5000354B8A01D3180293002E2CD0334B1B689B
:104F60000393FF233B401C0000930834039B640120
:104F70001C19A379DB0921D02D4B2E49186800F0AC
:104F800017FD2D4B1721584300F012FD2B4BE279F2
:104F9000920713D4DA5D002A01D10138F7D2012239
:104FA000DA55009B5A01214B9B189A69920B920388
:104FB0009A6101256D42280005B0F0BD00221F4B0B
:104FC0003400DA553F2E09D9009B40245A01174B73
:104FD0009B188022996912060A439A61220001995E
:104FE000029802F041FC009BA1045A010F4B890C6E
:104FF0009B18029A2D195A619A69361B920B9203DB
:105000000A439A61009B039A08335B01D31802227A
:10501000DA715979823A0A435A71019B1B1901933B
:105020009AE7C046B4100020300C0020BC100020CD
:105030000000002040420F0070110100250C0020EC
:1050400070B50D001C000D4BAE01F61811003000BC
:10505000220002F009FCEDB209496D014D196E61A3
:10506000AB69084A20001340AB61AB69A2049B0BFB
:10507000920C9B031343AB6170BDC046300C002003
:10508000BC100020FF3F00F0F7B5104B01901B78DB
:105090000F001500002B0CD10D4B16001C78002CB6
:1050A00009D00C4E0C4834882018641902F0DCFB3F
:1050B00034802800FEBD002EFBD03A1933000021B9
:1050C0000198FFF7BDFF2418361AF4E7B00F00204F
:1050D000B1100020B2100020B10F0020F8B50F0071
:1050E00016000024012A26D9100002F0A9FB0500B1
:1050F000380002F08FFC03230222013040002870A8
:105100006B7096420DD9397800290AD0531CDBB256
:105110000137A9549E4203D00232EC54D2B2F0E7D8
:10512000320029000548FFF7AFFF441EA041C4B27A
:10513000280002F08FFB2000F8BDC046040C0020C0
:10514000F0B50024012685B0184B0F0069461E708B
:1051500005000094FFF751FC154B01A90B806A3B39
:10516000FF3BCB715A330B72009B8C7109334B8020
:105170000E4B4E7108711C703A00092F0FD00D4F65
:1051800009223E700C4E280000943480FFF77CFF0B
:1051900069462800FFF731FC328808493C70280036
:1051A000FFF772FF012005B0F0BDC046B00F002030
:1051B00009020000B1100020B2100020B10F002041
:1051C00070B5CE7892B005000C00022E0BD18B7911
:1051D000C9792E4809021943FFF7B2FF411E8841E1
:1051E000C0B212B070BDFFF791F92100FFF722F9AC
:1051F000002803D0C117081AC00FF2E7012E0ED104
:10520000E279A37912021A432149112A3CD8D2B279
:10521000002A39D02800FFF737FF0120E1E7032EED
:10522000DFD1A378002B28D0022B08D1E279A37913
:10523000120218491A432800FFF750FFD1E7012B4B
:1052400005D1E279A37912021A431349F3E7032B3C
:10525000C7D10100412201A802F00FFBFFF756F968
:1052600001A9FFF7F7F8002805D0E279A379120227
:105270001A4301A9DFE70378FFDEE279A37912027E
:105280001A430649032AC2D90A78C3E7040C00204E
:10529000308100000C81000024810000208100008A
:1052A000CBB204495B01C9188B699B0B9B038B61D3
:1052B0007047C046BC10002037B5050048780C0088
:1052C0000B2810D800F06AFB061B0F2B0F4045611E
:1052D000494C5A5D097801AA002906D102231180A0
:1052E0002800FFF7ADFE01203EBD00231380284BB0
:1052F0001B78012B00D1137002230021F0E78A787C
:105300000023012A03D101AA1380224BF0E7204A8F
:105310001370214A93699B0B9B039361E3E78C789D
:10532000012C06D100211B4B01AA1C701170230017
:10533000D6E70120002CD7D1154B174A1870936976
:105340009B0B9B039361CFE789782800FFF722FC32
:10535000C9E72800FFF734FFC6E701230F4ACCE76F
:105360000B780020DB06BFD12800FFF7D9FCA2781C
:105370000A4B0B481A60FFF725F8CAE70123094AD0
:10538000BBE78A78074B1A60C3E70020ACE7C0464A
:10539000240C00202C0C0020BC100020B410002095
:1053A0009C0B0020B81000203B4BF7B51E78050081
:1053B000002E5FD1394C23689A8B12070DD5082235
:1053C00031009A833000FFF7BBF810222368FF33C7
:1053D000997A0A439A72324B1E6023689A8B52075D
:1053E00001D504229A83FF331A7A920603D520222C
:1053F000597A0A435A721A7AD20623D569460800A6
:10540000284AC0CAC0C0A268920B9203A260402280
:10541000587902435A7160230A7828001A422AD127
:10542000FFF74AFF2368FF33002827D080229979AD
:1054300052420A439A711A7A520603D54022597A87
:105440000A435A727F2601252368FF331E722F00FC
:10545000236808377F01DB19DB79002B07D0124B5B
:10546000AA00D05800280DD003681B689847013562
:10547000082DECD1F7BDFFF7B1FBD3E720210B4A94
:105480009171D8E7FFF742F82900FFF706F8236883
:10549000DF19FE71EBE7C046B1100020BC10002000
:1054A000B4100020F00D0020080C0020FF50004137
:1054B00010B50248FFF778FF10BDC046040C00206D
:1054C000014B024A1A607047BC1000200050004196
:1054D0000120704710B50368014A1B6A984710BD48
:1054E000130400000300FC33D9699A69914203D088
:1054F000DB69C018007D704701204042FBE710B512
:1055000004000069FEF766FC22000023FC32936170
:10551000D36186229200A4186360A36010BDF020BE
:1055200001403039484248417047F0231B0119407F
:10553000802306209B0099420AD00133FF330130BB
:10554000994205D0802302385B00994200D00020A8
:1055500070470F2001400020012903D00239481E66
:105560008141481C704700008923F0B5182685B09A
:1055700002919B000400C05C330008214343324D7C
:105580001700EB185956FEF745FB304B0821E05C3D
:1055900033004343EB185956FEF73CFB2C4BE25CBF
:1055A0000393022A09D11133E05CFF2805D00821BA
:1055B0004643AE197156FEF72DFB8A26B600A05D54
:1055C000FF2819D00121FEF795FA1822A35D214981
:1055D0005A43AB56AD18DB0158188B218900605037
:1055E0001D4901225B188C218900635069688A403B
:1055F0008D21890062501A600122029B11002069EE
:10560000FEF7CCFC39002000FFF78FFF39000500C2
:105610002000FFF79EFF390006002000FFF77FFF04
:1056200033000090290020690122FEF7A3FB0B4BF9
:105630002069E25C039BE15CFEF7B9FB2069FEF7A1
:10564000D6FB05B0F0BDC046307D0000250200004D
:1056500027020000184400411444004126020000C3
:10566000802210B504005200002102F006F9230048
:105670000022FC335A6020009A6010BDF7B51D006F
:1056800008AB1B780400009309AB1B78160001934C
:1056900000234360FA239B008360114B0F00083303
:1056A00003601430FFF7DCFF20001D30FF30FFF7F0
:1056B000D7FF89236A469B002761E654094B12787D
:1056C000E554094B2000E2546A46084B1279E25433
:1056D0008A22293BFF3B9200A3541032A354FEBD03
:1056E000448100002502000026020000270200007D
:1056F0000300FC3358689B68C01A01D50130FF30A5
:10570000704710B5040020001D30FF30FFF7F0FF98
:105710000028F8D12069FEF774FB10BD10B51430D5
:10572000FFF7E6FF10BD0300FC3359689A68914209
:1057300004DB5A689868801AFF30704798685B6885
:10574000C01A0138F9E710B51D30FF30FFF7EBFF45
:1057500010BD10B504000069FEF76FFB002805D0EE
:105760002069FEF77AFB2069FEF76CFB2069FEF7E3
:1057700054FB002820D02069FEF76FFB2200FC328A
:105780009369D1690133DBB28B4203D0916961180F
:10579000087593618A239B00E35CFF2B0CD02000EB
:1057A0001430FFF7C0FF092806DC8B238D229B00F5
:1057B0009200E358A2581A602069FEF749FB0028BE
:1057C0001AD020001D30FF30FFF792FF002822D0B2
:1057D00086239B00E31899685A68914218D08E215D
:1057E0009A684900A218515C9A680132D2B29A6054
:1057F000C9B22069FEF735FB2069FEF713FB0028CC
:1058000005D02069FEF712FB2069FEF702FB10BDF0
:1058100001214942ECE72069FEF72FFBECE700008D
:1058200070B5040000690D00FEF712FB00283ED1A0
:10583000FF2686239B00E3185A689968013232409C
:105840008A4223D1EFF31083DB0710D41E4B5B6831
:10585000DB05DB0DEDD0103B5BB2002B10DA0F2225
:105860001340083B9B08194A9B009B181B68206942
:10587000FEF7EEFA0028DCD02000FFF76AFFD8E739
:105880009B08C033124A9B009B58F0E75A680132CC
:1058900016409A68964205D08E215A684900A2188F
:1058A00055545E602069FEF7E4FA012070BD2000C7
:1058B0001D30FF30FFF71CFF0028B9D129002069F7
:1058C000FEF7CFFAF1E7C04600ED00E01CED00E086
:1058D00000E100E0030070B5FC33D9699A69040067
:1058E00091421AD0DA698218157DDA690132D2B292
:1058F000DA618A239B00E35CFF2B0CD0200014307C
:10590000FFF711FF0A2806DD8C238D229B009200F1
:10591000E358A2581A60280070BD01256D42E8E7DF
:105920007047000010B5FDF799FF01F065FFFFF724
:10593000F7FF0120FDF7BAFE084C2000FFF76EF8D4
:105940002000FFF70DF9FCF7ADFDFDF795FB044BCB
:10595000002BFAD000E000BFF7E7C046040C00209F
:105960000000000010B501F06BFF10BD10B501F094
:1059700071FF10BDF7B506000D000C008B180193E8
:10598000019B671B9C4207D0336821781B6830005D
:10599000984701340028F3D13800FEBD02B47146A7
:1059A00049084900095C49008E4402BC7047C04662
:1059B000002243088B4274D303098B425FD3030A4E
:1059C0008B4244D3030B8B4228D3030C8B420DD361
:1059D000FF22090212BA030C8B4202D312120902EF
:1059E00065D0030B8B4219D300E0090AC30B8B422D
:1059F00001D3CB03C01A5241830B8B4201D38B03DB
:105A0000C01A5241430B8B4201D34B03C01A52417F
:105A1000030B8B4201D30B03C01A5241C30A8B42C2
:105A200001D3CB02C01A5241830A8B4201D38B02AD
:105A3000C01A5241430A8B4201D34B02C01A524151
:105A4000030A8B4201D30B02C01A5241CDD2C309C3
:105A50008B4201D3CB01C01A524183098B4201D33F
:105A60008B01C01A524143098B4201D34B01C01A2A
:105A7000524103098B4201D30B01C01A5241C308A2
:105A80008B4201D3CB00C01A524183088B4201D311
:105A90008B00C01A524143088B4201D34B00C01AFD
:105AA0005241411A00D20146524110467047FFE769
:105AB00001B5002000F0F0F802BDC0460029F7D083
:105AC00076E7704703460B437FD4002243088B429E
:105AD00074D303098B425FD3030A8B4244D3030B75
:105AE0008B4228D3030C8B420DD3FF22090212BA3A
:105AF000030C8B4202D31212090265D0030B8B42B6
:105B000019D300E0090AC30B8B4201D3CB03C01A9F
:105B10005241830B8B4201D38B03C01A5241430B7A
:105B20008B4201D34B03C01A5241030B8B4201D36A
:105B30000B03C01A5241C30A8B4201D3CB02C01AD5
:105B40005241830A8B4201D38B02C01A5241430A4D
:105B50008B4201D34B02C01A5241030A8B4201D33C
:105B60000B02C01A5241CDD2C3098B4201D3CB01E3
:105B7000C01A524183098B4201D38B01C01A524192
:105B800043098B4201D34B01C01A524103098B4296
:105B900001D30B01C01A5241C3088B4201D3CB0081
:105BA000C01A524183088B4201D38B00C01A524164
:105BB00043088B4201D34B00C01A5241411A00D214
:105BC00001465241104670475DE0CA0F00D049427D
:105BD000031000D34042534000229C4603098B42ED
:105BE0002DD3030A8B4212D3FC22890112BA030A75
:105BF0008B420CD3890192118B4208D389019211F7
:105C00008B4204D389013AD0921100E08909C3097B
:105C10008B4201D3CB01C01A524183098B4201D37D
:105C20008B01C01A524143098B4201D34B01C01A68
:105C3000524103098B4201D30B01C01A5241C308E0
:105C40008B4201D3CB00C01A524183088B4201D34F
:105C50008B00C01A5241D9D243088B4201D34B006A
:105C6000C01A5241411A00D20146634652415B10AC
:105C7000104601D34042002B00D54942704763468D
:105C80005B1000D3404201B5002000F005F802BDD2
:105C90000029F8D016E770477047C0468446101CAC
:105CA00062468C46191C634600E0C0461FB500F0F2
:105CB00031FF002801D40021C8421FBD10B500F0FB
:105CC00089FE4042013010BD10B500F023FF0028CE
:105CD00001DB002010BD012010BDC04610B500F052
:105CE00019FF002801DD002010BD012010BDC046B5
:105CF00010B500F0ABFE002801DC002010BD012033
:105D000010BDC04610B500F0A1FE002801DA002049
:105D100010BD012010BDC046F0B5CE464746150463
:105D20002D0C2E0080B50704140C3F0C9946030C73
:105D30007E435D43674363437F19340CE4199C46FB
:105D4000A54203D980235B029846C4444B46434393
:105D50005143250C36046544360C2404A4195B1900
:105D6000591820000CBC90469946F0BD70B506004D
:105D7000080001F0F1FC0022064B00F033FF0D009B
:105D80000400300001F0E8FC2B00220000F004F8D1
:105D900070BDC0460000F041F0B54F464646D646BD
:105DA0000C000903C0B5490A470F5E0039431F03C1
:105DB000DB0F9C4665007B0A570F1F436D0DE40FF8
:105DC000760DA146C000B846D200AB1B64457BD01F
:105DD000002B5FDD002E00D0A4E03E00164300D172
:105DE00012E15E1E002E00D09EE1871A4346B842A3
:105DF00080410125C91A4042091A0B0200D431E141
:105E000049024E0A002E00D16EE1300001F0D6FCAE
:105E10000300083B1F2B00DD61E120223900D21A6C
:105E20009E40D1409F400E439D4200DD51E15D1BED
:105E30006B1C1F2B00DD7CE12021C91A3D003000C6
:105E40008F408840DD40791E8F4131000722284372
:105E5000D940002507433A40002A09D00F233B4090
:105E6000042B05D03B1DBB42BF417F42C9191F0017
:105E70000B0200D426E26A1CC64B55056D0D9A42F2
:105E800000D106E1C44AFF080A40530752023B43CF
:105E9000120B8EE0002B00D0B8E06B1C5B055B0D95
:105EA000012B00DC30E1871A4346B842B641CB1AD9
:105EB00076429E1B330200D54CE13B003343A1D117
:105EC00000220024002570E0002B00DCE5E0002E1D
:105ED00000D183E0AF4EB54260D080263604374310
:105EE000B846382B00DC3EE1434613431F007A1EC0
:105EF00097413F1887428041404209180B0200D465
:105F0000B0E0A44B01359D4200D1C3E0A24A7B081A
:105F10000A4001210F401F435108D30707221F43A6
:105F20003A4099E79B4EB54238D080263604374335
:105F3000B846382B00DDDCE01F2B00DC30E11E0012
:105F40004746203EF740BC46202B04D04026F31A9B
:105F500046469E403243170063467A1E97411F43D0
:105F6000CCE0002B00D104E24346134300D159E1B9
:105F70004B07C00818438023C9081B03194208D0E7
:105F80004546ED081D4204D14346D0085907084351
:105F90002900420FC9007F4D1143C0004B07CA08BA
:105FA0007C49C00803438D4268D012036D05120B73
:105FB0006D0D002112031800130B0A0D12051A4370
:105FC000764B2D0513402B435B00E4075B0823430E
:105FD00019001CBC90469946A246F0BD3E001643EF
:105FE00012D05E1E002E00D000E18718874280414B
:105FF00041444042091801250B0233D5022585E7AB
:1060000064463300414610001D00C7E7002D00D054
:10601000DAE00C000443F3D05C1C00D19FE15D4C3E
:10602000A64200D12FE1DB43382B00DD66E11F2BB8
:1060300000DD83E120240500E41A0F00DD40D94093
:10604000A0404346A7405B1A441EA04198462F43F8
:106050003843171ABA42924143465242991A64464B
:106060003500CAE607223A40002A00D0F6E64B0780
:10607000CA084849FF083B438D4296D11900114395
:1060800000D19EE1802109030A431203120B414D06
:106090008FE71500002200238BE7002B00D0C7E01C
:1060A0006B1C5F057F0D012F00DCF1E0394DAB4229
:1060B00000D1B9E085180A0085428941424449422D
:1060C00051180722CF076D082F4349083A401D0099
:1060D000C2E607223049ED1A31403A40BCE63E00A4
:1060E0002838864000279FE6380001F067FB203003
:1060F0008EE6434613431F007A1E9741C71BB842E2
:1061000080414042091A78E60E003B0006431343E3
:10611000002D61D1002E00D0F4E0002B00D11BE156
:1061200064463900100039E71A4FBB427AD0330079
:10613000FFE630001F3DE840202B03D04021CB1A62
:106140009E4037437B1E9F41072207433A40002170
:10615000002589E7171A4346BA42B641591A7642D2
:106160008E1B64464EE61F2B00DDADE02026474621
:10617000F61AB740B9461700B246DF404E463E43D6
:1061800037005646B240561EB24117434246DA40E7
:106190008918AEE6FF070000FFFF7FFFFFFF0F80BB
:1061A00020264746F61AB740B9461700B246DF40E8
:1061B0004E463E4337005646B240561EB241174344
:1061C0004246DA40891A99E77F4CA6425BD0802488
:1061D00024045B42214327E7002E0CD1002B00D181
:1061E000CBE0644639001000774DD7E6764FBB42CE
:1061F00018D0330075E6002B14D04B07C0081843A5
:106200008023C9081B03194207D0FC081C4204D193
:106210007907D0080843E14621004C46420FC900E7
:106220001143C000684DB9E61D0000220023C0E6FE
:10623000002D5BD10D00054300D1E2E65D1C00D1CD
:10624000B0E0614DAE421FD0DB43382B71DC1F2B19
:1062500000DD96E020250F00ED1AAF40B94607009B
:10626000AA46DF404D463D432F005546A840D94041
:10627000451EA84188440743BF18974292415142A6
:10628000414435003AE6644635004146100085E653
:106290000B000343002D00D063E6002BF5D04346EE
:1062A000134300D17AE68718874280410722414490
:1062B000404209183A400B0200D4D5E6434B013561
:1062C0001940C9E5380069E61E004746203EF74000
:1062D000BC46202B04D04026F31A46469E4032434B
:1062E000170063467A1E97411F4302E6364DAE42C1
:1062F000CAD080252D045B422943A6E70843411EEE
:106300008841A6E6002B00D148E6871A4346B842EA
:10631000B641CB1A76429E1B33024BD5171A434621
:10632000BA429241591A5242891A072264463A40A7
:1063300092E501430F00791E8F419DE71C000F007D
:10634000203CE740202B03D04024E31A9940084327
:10635000411E884138437CE60022002425E6171AB6
:106360004346BA429241591A5242891A644635004C
:1063700043E541461000144D10E68022002412032C
:1063800080E61D000F00203DEF40BC46202B03D0CF
:106390004025EB1A9940084307006346781E874161
:1063A0001F4369E7871897429B4141445B42C918E4
:1063B0003500A3E53B003343CED0072231003A40FD
:1063C00052E600231A00F4E5FF070000FFFF7FFFFD
:1063D000F0B55746DE464E464546E0B583460700D3
:1063E0000E03480085B092461C00360B400DCD0FC1
:1063F000002800D19DE0954B984239D08023F600CB
:106400001B041E43924A7B0F334399469446030074
:106410006344009300230026FF00029323031B0B19
:1064200098466300E40F52465B0D019400D1B3E03F
:1064300086498B4200D19EE04246D1008022120460
:106440000A435146490F11438B46814952468C46B7
:1064500000996344CB1A0021D20000932B006340C3
:106460009A460F2E00D905E17A4BB6009B599F46FC
:106470005B463343994600D0B8E002230826002744
:1064800000900293CAE7CB463A0002990195019B1E
:106490009A46022927D0032900D180E2012944D05D
:1064A0006D49009B8C4663441C00002C38DD53076B
:1064B00000D013E2D2085B46DB0109D55946674B91
:1064C00019408B468021C9008C46009B63441C0008
:1064D000634B9C4207DC5B4664055F075B02174326
:1064E0001B0B620D02E000230027584A00211B030A
:1064F0001C0B0B0D1B05234314055A4A380013408F
:106500001C4353466400DB0764081C43210005B0AC
:106510003CBC90469946A246AB46F0BD0122524291
:1065200001231B1B382B00DCADE1002200230027D8
:10653000DCE75B46334399465ED0002E00D18AE10A
:10654000300001F03BF903000B3B1C2B00DD7BE12D
:106550001D22D31A5A460100DA4008398E40130032
:106560005F46334399468F403F4B00261B1A0093EA
:106570000023029352E7414653460B433B499B4657
:106580008C46009B634400935B46002B3BD1022367
:1065900000221E43022161E7434613439B4637D046
:1065A0004346002B00D162E1404601F007F90300A9
:1065B0000B3B1C2B00DD53E102004146083A9140A1
:1065C00088461D21CB1A5146D9400B0041460B434A
:1065D0009B46534693401A00009B25499C466044C5
:1065E00003008C4663440093002137E70323B14640
:1065F00000900C26029311E7002300930133042638
:10660000002702930AE70323C3461E43032125E71D
:1066100001331E430022012120E700239A468023F4
:1066200000271B03094A61E7802349461B031942DF
:1066300000D1E2E05946194200D0DEE00B431B03D3
:1066400017001B0BA246014A50E7C046FF07000097
:1066500001FCFFFF78810000FF030000FFFFFFFE49
:10666000FE070000FFFF0F800DFCFFFF01F8FFFF9A
:10667000F3030000D94500D9CBE000D1C6E03C00CF
:1066800048460027009B013B00935B46160E1B0209
:106690001E431302984633041B0C9946310C01919A
:1066A000FFF70CFA4A4642430B04210C050019433C
:1066B0008A4207D98919013D8E4203D88A4201D9FD
:1066C000851E8919881A0199FFF7F8F909048C4683
:1066D0004A46210464464243090C030021438A428E
:1066E00004D98919013B8E4200D8F1E02D041D43E5
:1066F000AB464346891A4246280C12041D0C5B46E1
:10670000140C22001B041B0C5A4303946B43444398
:10671000029568431B19150CEB189C4203D9802481
:106720006402A44660441C0C15041B042D0C2018A4
:106730005D19814277D373D00C1AA24A7D1BAF42F8
:10674000BF419446009B7F426344E01B1C0086428D
:1067500000D1DBE00199FFF7B1F94A4642430B044F
:10676000290C070019438A4207D98919013F8E4233
:1067700003D88A4201D9871E8919881A0199FFF71F
:106780009DF909044A46894629044D464243090CAD
:10679000030029438A4207D98919013B8E4203D855
:1067A0008A4201D9831E89193F04891A3A00039F3E
:1067B0001A43380013041B0C584381460298150CE9
:1067C0006F43434345434846000C8446DB1963440A
:1067D0009F4203D9802040028446654448461F0CEE
:1067E00000041B04000C7D191818A94200D284E093
:1067F00000D17FE001231A4357E680234A461B035A
:1068000013431B031B0BAA466F4A6FE6BA4200D91B
:1068100035E74B46DC0758087B081C43FF0734E785
:106820000024AF4289D247444745A4415B466442B5
:10683000A4196418013BA6421ED2A0426DD800D113
:10684000B6E0241A9B4678E703005A46283B9A4054
:106850000027914688E6584600F0B0FF203072E6E7
:1068600003005246283B9A4093460022B4E6504625
:1068700000F0A4FF20309AE6A642E2D1B845DCD968
:10688000341A9B4659E71F2B65DC504C0099A446EF
:106890005C46614408008C4011008240D940501E83
:1068A00082410C4314435A46DA401300620709D070
:1068B0000F222240042A05D02200141D944289414F
:1068C00049425B181A0262D50122002300270DE617
:1068D0008A4200D80AE7831E891907E70F2313406D
:1068E000042B00D1E6E5171D9742924153429B4489
:1068F000FA08E0E5002800D1D7E57118531EB1422F
:1069000027D3A94215D358D01A0073E7002B00DC17
:1069100004E6012300229B44CDE50223474447457A
:1069200089415B429C46494289190C19E344241A67
:1069300003E743465F0047459B41B8465B429E19CB
:10694000023A8919A94200D054E7404500D051E7E6
:10695000ABE51A00F6E71F215F4649420C1BE740F2
:10696000202B07D01A49009B8C46634418005B46D5
:1069700083401A43501E82413A43072700231740A1
:1069800009D00F21002311401400042995D12200C1
:106990005F075B021B0BD20817430022A6E580238A
:1069A00059461B030B431B0317001B0B064A9DE5AF
:1069B000BD42B2D89B460024BFE68045B9D31A0039
:1069C000C3E7C046FF030000FF0700001E040000ED
:1069D0003E040000F0B54F464646D6468446C0B554
:1069E0008046194E18030F034D00000B5C008246D1
:1069F0003F0B6D0DC90F9146640DDB0F0120B542B1
:106A00000AD0B44203D0A54201D157450CD01CBCDA
:106A100090469946A246F0BD66463E43F7D1AC4249
:106A2000F5D154461443F2D10120C845EFD1994223
:106A300007D0002DEBD163461F433800471EB841F5
:106A4000E5E70020E3E7C046FF070000F0B54F464A
:106A50004646D6464D00C0B50E03C90F8A462C499E
:106A60001F035C008046360B6D0D91463F0B640D95
:106A7000DB0F8D421ED08C4216D0002D1ED130432C
:106A80008446002C01D13A4323D06246002A1AD012
:106A90009A4529D0514602200139084001381CBCD2
:106AA00090469946A246F0BD39001143E5D0022038
:106AB0004042F4E73043FAD1AC420FD0002C0FD162
:106AC0003A43E7D00CE00122013B93431800013028
:106AD000E5E763460020002BE1D0DBE73A43E6D14F
:106AE0009A45D7D1A542D5DCA54205DBBE42D1D817
:106AF00008D00020BE42D2D250460123013898432C
:106B00000130CCE7C845C5D80020C845F4D3C6E756
:106B1000FF070000F0B54F464646D6464D00C0B5CB
:106B20000E03C90F8A462E491F035C008046360BB0
:106B30006D0D91463F0B640DDB0F8D4218D08C42DA
:106B400011D0002D18D130438446002C1ED13A4379
:106B50001CD163460020002B30D051460220013961
:106B6000084001382AE039001143EAD0022025E02C
:106B70003043FBD1AC4226D0002C26D13A4324D15D
:106B80005146022001390840013817E06246002AC8
:106B90000FD09A45E1D1A54205DBBE42DDD819D020
:106BA0000020BE420AD250460123013898430130EA
:106BB00004E00122013B9343180001301CBC9046C5
:106BC0009946A246F0BD3A43D0D19A45C5D1A542D7
:106BD000C3DCE0E7C845C0D80020C845E3D3EDE7F3
:106BE000FF070000F0B55746DE464E464546E0B585
:106BF000834606000F03480087B092461D003F0BF6
:106C0000400DCC0F002800D16FE0DE4B984238D009
:106C10008023FF001B041F43730F3B430193DA4B98
:106C20000027994600239B46F60081442B03690008
:106C30001B0B52469846490DED0F002900D185E007
:106C4000D04B994200D173E04346DA0080231B0405
:106C500013435246CC48520F8446134352460020F9
:106C60006144D20089442100694000918C46012191
:106C700049448A460F2F00D990E0C449BF00CF593C
:106C8000BF465B463B43019300D06AE102230827DD
:106C9000002681469B46C9E732005846019B614663
:106CA0000091022800D175E0032800D1FEE10128FF
:106CB00000D02CE100230027002600253F032A0DE9
:106CC0003F0BB34812053A4302401B051343009A99
:106CD0005B00D1075B080B433000190007B03CBCD8
:106CE00090469946A246AB46F0BD5B463B430193B6
:106CF00000D12FE1002F00D1A5E1380000F05EFDAA
:106D000003000B3B1C2B00DD96E11D22D31A5A46D3
:106D10000100DA405E4608398F4013008E403B4345
:106D200001939C4B00271B1A994600239B467DE745
:106D3000414653460B4393498C46E144002B00D017
:106D40001AE102220220174300228CE7134300D1EC
:106D50000DE14346002B00D181E1404600F02EFDBD
:106D600002000B3A1C2A00DD72E10100434608399B
:106D70008B4098461D239A1A5346D3401A00434627
:106D8000134352468A404946081A8249894681443B
:106D9000002068E77B4B002700268EE7140C1204C6
:106DA000120C1100370C3604350C794328008C4640
:106DB0002E0060436044834656432100300C8046D9
:106DC0005846794340440291844506D9884680213B
:106DD00049028C46E044414602913604010C360CCF
:106DE00000048B4681191E0C1B041B0C0391190017
:106DF00079438C46280075436544A8465843050CE2
:106E000045447743A94203D9802149028C4667440F
:106E1000290C8C4639000004000C2D042D18614407
:106E2000AB4405915946049101990F043F0C080C9D
:106E3000390051434243904602008C46090C8B4670
:106E400062437C4344445C44A04503D98021490209
:106E500088464244210C884661460904090C8C4648
:106E600039005943434370437E430F0CF618240402
:106E7000BE19644442448C46B34203D980235B026A
:106E800098464044029B61469846049B370443441D
:106E90009B46AB45AD416B420D0405992D0C8C46CC
:106EA0007F196744FD18A8465D462D19A542A441E7
:106EB00093466442A446C344DC448F42BF41984594
:106EC0009B4193459241A445A4415B427F421F43AD
:106ED000360C52426442BF192243BF18624638182A
:106EE0004302D20D039913436A020A43501E8241A2
:106EF0006146ED0D2A434E023243D90100D4B3E07E
:106F00000126500832400243DE0732435B08224C20
:106F10005444002C62DD510709D00F201040042892
:106F200005D0101D9042924152429B180200D90197
:106F300004D580241948E40003405444184884428E
:106F400000DD27E75E075B02D2081F0B63051643CF
:106F50005B0DB2E6002399460133042700269B46C9
:106F600064E60323019781460C279B465EE60122D7
:106F700001201743002276E6032303201F434346E4
:106F800071E6C046FF07000001FCFFFFB88100006A
:106F9000FFFF0F800DFCFFFFFF030000FFFFFFFE60
:106FA000FE0700000023802700933F030026434B89
:106FB00083E6019B3200A446584670E6AC466EE676
:106FC000802701993F0339422DD03B422BD11F43EB
:106FD0003F033F0B00951600384B6EE601252D1B35
:106FE000382D00DD66E61F2D40DC35481C0050447E
:106FF000160082408440EE40501E824134431443C8
:10700000EB40620709D00F222240042A05D022005B
:10701000141D9442804140421B181A023ED50123A0
:107020000027002649E68027019B3F031F433F03BB
:107030003F0B0094214B40E603005A46283B9A4000
:10704000002601926DE6584600F0B8FB203057E666
:1070500003005246283B9A401300002293E6504614
:1070600000F0ACFB20307BE6CA4650E71F201E0034
:107070004042041BE640202D03D0124C5444A34050
:107080001A43501E8241324307260027164009D07A
:107090000F200023104014000428B9D122005E07FD
:1070A0005B021F0BD2081643002306E680273F032E
:1070B0001F433F033F0B1600004BFEE5FF07000098
:1070C0001E0400003E040000F8B557464E464546F3
:1070D000DE460C000903E0B5490A460F5F00314364
:1070E0001E03DB0F760A9B46530F3343C84E6500E1
:1070F000C000E40FD2006D0DA24681467F0D9C4674
:107100009046B74200D1B9E05B46012673409B46EA
:10711000EE1BA34500D183E0002E63DD002F00D0DD
:10712000B1E06346134300D123E1731E002B00D06E
:10713000BAE1861A6346B04280410125C91A40422D
:10714000091A0B0200D447E149024B0A984643460C
:10715000002B00D189E1404600F030FB0300083BE2
:107160001F2B00DD7CE120223000D21A4146D040A6
:10717000994002009E400A439D4200DD6AE15D1B8A
:107180006B1C1F2B00DD94E1202110003500C91A73
:107190008E40DA408840DD40711E8E41110007228A
:1071A0002843002506433240002A09D00F233340EC
:1071B000042B05D0331DB342B641764289191E0017
:1071C0000B0200D43DE26A1C914B55056D0D9A42AD
:1071D00000D119E18F4AF6080A4057075202374397
:1071E000120B9BE0002E00D0C5E06E1C7605760DDC
:1071F000012E00DC48E16746861ACB1BB042BF4136
:107200007F42B8461F004346FF1A3B00B8461B02A8
:1072100000D55FE137439AD100220024002579E0B0
:10722000002E00DCFAE0002F00D18DE0784B9D426B
:1072300067D0802367461B041F43BC46382E00DC02
:1072400052E1634613435A1E93411E188642804101
:10725000404209180B0200D4BEE06D4B01359D423F
:1072600000D1D2E06B4A73080A4001210E401E4350
:107270005108D30707221E43324095E71E001643EC
:1072800000D045E740E7624B9D423AD080236746F5
:107290001B041F43BC46382E00DDEBE01F2E00DC34
:1072A0003AE133006746203BDF403B00202E05D00B
:1072B0004027BF1B6646BE40324390464646721E7C
:1072C00096413343DAE0002B00D114E263461343C6
:1072D00000D168E180234E07C008C9081B0306439C
:1072E000194208D06046C008184204D16346010024
:1072F000D2085E071643F3009946C900720F444D49
:1073000011434B46DE08424B4F073743CA089D42A4
:1073100000D16EE012036D05120B6D0D00211203FA
:10732000130B0A0D12051A433B4B2D0513402B433B
:107330005B00E4075B082343380019003CBC90461F
:107340009946A246AB46F8BD6346134311D0731E5F
:10735000002B00D007E186188642804161444042FC
:10736000091801250B0237D502257BE73E0061464F
:1073700091463500C5E75C46002D00D0E1E00B00EA
:107380000343F3D0731C00D1ACE1214B9F4200D1E9
:107390003AE1F343382B00DD6FE11F2B00DD8CE178
:1073A00020250E00ED1AAE40B0460600AA46DE408B
:1073B000454635432E005546D940A8406346451EF4
:1073C000A8415B1A9C463043161AB242924163466A
:1073D0005242991A3D00B4E607223240002A00D0FA
:1073E000E4E60B4BF6084F073743CA089D4200D02E
:1073F00090E73B00134300D1A6E180231B031A430F
:107400001203120B024D89E715000022002785E7C1
:10741000FF070000FFFF7FFFFFFF0F80002E00D05F
:10742000C7E06B1C5E05760D012E00DCF0E0C84D58
:10743000AB4200D1B9E085180A0085428941624417
:10744000494251180722CE076D082E4349083240A1
:107450001D00A9E6BF49ED1A114007223240A3E6FC
:10746000320028388240002686E6300000F0A6F977
:10747000203073E6634613435A1E9341C61AB04246
:1074800080414042091A5CE60E00674606431743F6
:10749000002D5ED1002E00D0F3E0002F00D11EE1C0
:1074A0005C46614691462CE7A94FBE427BD01E0048
:1074B000F1E610001F3DE840202B03D04021CB1AFD
:1074C0009A401643731E9E41072206433240002114
:1074D000002583E7161A6346B2428041591A40429A
:1074E0000B1A98465C4632E61F2E00DDABE02027E3
:1074F000BB1B9A4663465746BB40994613004F460E
:10750000F3401F433B005746BA40571EBA4113434E
:107510006246F240891898E62027BB1B9A466346CC
:107520005746BB40994613004F46F3401F433B006C
:107530005746BA40571EBA4113436246F240891A71
:107540009CE7834B9F425FD080252D0473422943E3
:1075500020E7002E0CD1002F00D1D0E05C46614620
:1075600091467B4DCDE67A4FBE421CD01E0065E6AB
:10757000002F18D0C0084E0706438020C90800031A
:10758000014208D06346DC08044204D12100DA46F7
:10759000D2085E071643F300994601245346C900FA
:1075A000720F11431C406A4DABE61D0000220027FC
:1075B000B4E6002D59D10B00034300D1D6E6731C6D
:1075C00000D1B2E0624B9F421ED0F343382B6FDCF8
:1075D0001F2B00DD97E020250E00ED1AAE40B046CF
:1075E0000600AA46DE40454635432E005546A840D3
:1075F000D940451EA8418C440643B6189642924194
:10760000514261443D0025E63D006146914678E6E1
:107610000B000343002D00D055E6002BF5D0634648
:10762000134300D16DE68618864280416144404292
:10763000091800220B0200D4D0E6464B0135194050
:10764000B2E5B1465DE633006746203BDF403B00D4
:10765000202E05D04027BF1B6646BE4032439046D1
:107660004646721E96413343EFE5394B9F42CBD0DD
:1076700080252D0473422943A8E70843411E884111
:10768000A2E6002F00D13CE66346861ACF1AB0422C
:107690009B415B42FB1A98461B024ED5161A634665
:1076A000B2429241591A5242891A5C4600227BE545
:1076B00001430E00711E8E419FE71D000E00203D0C
:1076C000EE40B046202B04D04025EB1A99400843E9
:1076D000814648464346411E8841184374E60022CD
:1076E000002417E6161A6346B2429241591A5242D2
:1076F000891A3D0025E561469146154D01E6802237
:107700000024120379E61D000E00203DEE40B04635
:10771000202B04D04025EB1A9940084381464E4661
:107720004346711E8E411E4367E7861896429B4171
:1077300061445B42C9183D008CE547463743CED0D3
:1077400007224146324049E600273A00E6E5C046B6
:10775000FF070000FFFF7FFF10B5041E25D000F0DB
:107760002DF8144B1B1A5B055B0D0A2812DD0B3834
:10777000844000222403240B0021100024030A0D5E
:10778000240B120522430C4C1B05224013435B00C3
:10779000590810BD02002100153291400A000B214A
:1077A000081AC4402403240BE6E700230024002227
:1077B000E2E7C0461E040000FFFF0F801C210123EA
:1077C0001B04984201D3000C10391B0A984201D3C4
:1077D000000A08391B09984201D30009043902A2A2
:1077E000105C40187047C046040302020101010109
:1077F000000000000000000070B500260C4D0D4C8C
:10780000641BA410A64209D1002600F049F90A4DD4
:107810000A4C641BA410A64205D170BDB300EB58FE
:1078200098470136EEE7B300EB5898470136F2E788
:10783000880000208800002088000020A000002090
:1078400010B5034B0100186800F06AF810BDC0467F
:107850002400002010B5034B0100186800F016F852
:1078600010BDC04624000020002310B59A4200D16C
:1078700010BDCC5CC4540133F8E7030012189342E6
:1078800000D1704719700133F9E7000070B50500A9
:10789000002910D00C1F2368002B00DAE418280000
:1078A00000F0BFF81D4A1368002B05D16360146017
:1078B000280000F0B7F870BDA34209D9216860180C
:1078C0008342F3D118685B6841182160EEE713002A
:1078D0005A68002A01D0A242F9D919685818A04262
:1078E0000BD120680918581819608242E0D110683D
:1078F0005268411819605A60DAE7A04202D90C2395
:107900002B60D5E721686018824203D11068526865
:107910004118216062605C60CAE7C046C011002067
:10792000032370B5CD1C9D43083506000C2D1ED2D7
:107930000C25A9421DD8300000F073F8254A1468C0
:107940002100002919D1244C2368002B03D13000D9
:1079500000F04EF820602900300000F049F8431C88
:107960002BD10C233000336000F05CF803E0002DD5
:10797000DFDA0C233360002070BD0B685B1B19D469
:107980000B2B03D90B60CC18256003E04B688C42AD
:107990000DD11360300000F045F8200007220B30B5
:1079A000231D9043C31AE7D05A42E250E4E76360D4
:1079B0000C00EFE70C004968C3E70323C41C9C4399
:1079C000A042E1D0211A300000F012F8431CDBD1B4
:1079D000C7E7C046C0110020C411002010B5034BFA
:1079E0000A000100186800F01EF810BD24000020F5
:1079F000002370B5064C05000800236000F042F833
:107A0000431C03D12368002B00D02B6070BDC046FF
:107A1000CC1100200023C25C0133002AFBD1581E88
:107A2000704770477047F8B507000D001600002931
:107A300005D11100FFF774FF04002000F8BD002AF3
:107A400003D1FFF723FF3400F7E700F012F82C0012
:107A5000B042F2D231003800FFF762FF041EECD0D2
:107A600029003200FFF700FF29003800FFF70EFF62
:107A7000E3E70B1F1B68181F002B01DA0B58C01817
:107A800070470000044A1368002B00D1034B1818FC
:107A9000106018007047C046C8110020D0110020A7
:107AA000F8B5C046F8BC08BC9E467047F8B5C0465D
:107AB000F8BC08BC9E4670470000000000000000B3
:107AC0002727000069270000FD2000000521000095
:107AD0000000000000000000432600004B280000CA
